{
  "contractName": "MutateToken",
  "abi": [
    {
      "constant": true,
      "inputs": [],
      "name": "owner",
      "outputs": [
        {
          "name": "",
          "type": "address"
        }
      ],
      "payable": false,
      "stateMutability": "view",
      "type": "function",
      "signature": "0x8da5cb5b"
    },
    {
      "inputs": [],
      "payable": false,
      "stateMutability": "nonpayable",
      "type": "constructor",
      "signature": "constructor"
    },
    {
      "constant": false,
      "inputs": [
        {
          "name": "_fromtoken",
          "type": "address"
        },
        {
          "name": "_totoken",
          "type": "address"
        },
        {
          "name": "_to",
          "type": "address"
        },
        {
          "name": "_amount",
          "type": "uint256"
        },
        {
          "name": "_atrate",
          "type": "uint256"
        },
        {
          "name": "_multiply",
          "type": "bool"
        }
      ],
      "name": "mutate",
      "outputs": [],
      "payable": false,
      "stateMutability": "nonpayable",
      "type": "function",
      "signature": "0x894da85d"
    },
    {
      "constant": false,
      "inputs": [
        {
          "name": "_token",
          "type": "address"
        }
      ],
      "name": "unloadTokens",
      "outputs": [],
      "payable": false,
      "stateMutability": "nonpayable",
      "type": "function",
      "signature": "0x7c6db7ef"
    }
  ],
  "bytecode": "0x608060405234801561001057600080fd5b50336000806101000a81548173ffffffffffffffffffffffffffffffffffffffff021916908373ffffffffffffffffffffffffffffffffffffffff160217905550610913806100606000396000f3fe608060405260043610610057576000357c0100000000000000000000000000000000000000000000000000000000900463ffffffff1680637c6db7ef1461005c578063894da85d146100ad5780638da5cb5b1461015e575b600080fd5b34801561006857600080fd5b506100ab6004803603602081101561007f57600080fd5b81019080803573ffffffffffffffffffffffffffffffffffffffff1690602001909291905050506101b5565b005b3480156100b957600080fd5b5061015c600480360360c08110156100d057600080fd5b81019080803573ffffffffffffffffffffffffffffffffffffffff169060200190929190803573ffffffffffffffffffffffffffffffffffffffff169060200190929190803573ffffffffffffffffffffffffffffffffffffffff16906020019092919080359060200190929190803590602001909291908035151590602001909291905050506103ec565b005b34801561016a57600080fd5b506101736108c2565b604051808273ffffffffffffffffffffffffffffffffffffffff1673ffffffffffffffffffffffffffffffffffffffff16815260200191505060405180910390f35b6000809054906101000a900473ffffffffffffffffffffffffffffffffffffffff1673ffffffffffffffffffffffffffffffffffffffff163373ffffffffffffffffffffffffffffffffffffffff1614151561021057600080fd5b60008173ffffffffffffffffffffffffffffffffffffffff166370a08231306040518263ffffffff167c0100000000000000000000000000000000000000000000000000000000028152600401808273ffffffffffffffffffffffffffffffffffffffff1673ffffffffffffffffffffffffffffffffffffffff16815260200191505060206040518083038186803b1580156102ab57600080fd5b505afa1580156102bf573d6000803e3d6000fd5b505050506040513d60208110156102d557600080fd5b810190808051906020019092919050505090508173ffffffffffffffffffffffffffffffffffffffff1663a9059cbb6000809054906101000a900473ffffffffffffffffffffffffffffffffffffffff16836040518363ffffffff167c0100000000000000000000000000000000000000000000000000000000028152600401808373ffffffffffffffffffffffffffffffffffffffff1673ffffffffffffffffffffffffffffffffffffffff16815260200182815260200192505050602060405180830381600087803b1580156103ac57600080fd5b505af11580156103c0573d6000803e3d6000fd5b505050506040513d60208110156103d657600080fd5b8101908080519060200190929190505050505050565b600060011515821515141561041157606484840281151561040957fe5b049050610423565b826064850281151561041f57fe5b0490505b808673ffffffffffffffffffffffffffffffffffffffff166370a08231306040518263ffffffff167c0100000000000000000000000000000000000000000000000000000000028152600401808273ffffffffffffffffffffffffffffffffffffffff1673ffffffffffffffffffffffffffffffffffffffff16815260200191505060206040518083038186803b1580156104bd57600080fd5b505afa1580156104d1573d6000803e3d6000fd5b505050506040513d60208110156104e757600080fd5b81019080805190602001909291905050501015151561050557600080fd5b60008773ffffffffffffffffffffffffffffffffffffffff166370a08231336040518263ffffffff167c0100000000000000000000000000000000000000000000000000000000028152600401808273ffffffffffffffffffffffffffffffffffffffff1673ffffffffffffffffffffffffffffffffffffffff16815260200191505060206040518083038186803b1580156105a057600080fd5b505afa1580156105b4573d6000803e3d6000fd5b505050506040513d60208110156105ca57600080fd5b8101908080519060200190929190505050101515156105e857600080fd5b8673ffffffffffffffffffffffffffffffffffffffff1663095ea7b330866040518363ffffffff167c0100000000000000000000000000000000000000000000000000000000028152600401808373ffffffffffffffffffffffffffffffffffffffff1673ffffffffffffffffffffffffffffffffffffffff16815260200182815260200192505050602060405180830381600087803b15801561068b57600080fd5b505af115801561069f573d6000803e3d6000fd5b505050506040513d60208110156106b557600080fd5b8101908080519060200190929190505050508673ffffffffffffffffffffffffffffffffffffffff166323b872dd3330876040518463ffffffff167c0100000000000000000000000000000000000000000000000000000000028152600401808473ffffffffffffffffffffffffffffffffffffffff1673ffffffffffffffffffffffffffffffffffffffff1681526020018373ffffffffffffffffffffffffffffffffffffffff1673ffffffffffffffffffffffffffffffffffffffff1681526020018281526020019350505050602060405180830381600087803b15801561079e57600080fd5b505af11580156107b2573d6000803e3d6000fd5b505050506040513d60208110156107c857600080fd5b8101908080519060200190929190505050508573ffffffffffffffffffffffffffffffffffffffff1663a9059cbb86836040518363ffffffff167c0100000000000000000000000000000000000000000000000000000000028152600401808373ffffffffffffffffffffffffffffffffffffffff1673ffffffffffffffffffffffffffffffffffffffff16815260200182815260200192505050602060405180830381600087803b15801561087d57600080fd5b505af1158015610891573d6000803e3d6000fd5b505050506040513d60208110156108a757600080fd5b81019080805190602001909291905050505050505050505050565b6000809054906101000a900473ffffffffffffffffffffffffffffffffffffffff168156fea165627a7a72305820785822517544dd9abd53e116612245280018c1df823a1d126e59ae8d05a740f20029",
  "source": "pragma solidity ^0.5.0;\n\ninterface IERC20Token {\n  function transfer(address, uint256) external returns (bool);\n  function approve(address, uint256) external returns (bool);\n  function transferFrom(address, address, uint256) external returns (bool);\n  function totalSupply() external view returns (uint256);\n  function balanceOf(address) external view returns (uint256);\n  function allowance(address, address) external view returns (uint256);\n\n  event Transfer(address indexed from, address indexed to, uint256 value);\n  event Approval(address indexed owner, address indexed spender, uint256 value);\n}\n\ncontract MutateToken {\n    address public owner;\n\n    constructor() public{\n        owner = msg.sender;\n    }\n\n\n    // Convert USDT token(_fromtoken) -> INRT token(_totoken) and send it to the address\n    function mutate(address _fromtoken, address _totoken, address _to, uint _amount, uint _atrate, bool _multiply) public {\n        uint exchangevalue;\n        if(_multiply == true){\n            exchangevalue = (_atrate * _amount)/100;\n        }else{\n            exchangevalue = (_amount * 100) / _atrate;\n        }\n        require(IERC20Token(_totoken).balanceOf(address(this)) >= exchangevalue);\n        require(IERC20Token(_fromtoken).balanceOf(msg.sender) >= 0);\n        IERC20Token(_fromtoken).approve(address(this), _amount);\n        IERC20Token(_fromtoken).transferFrom(msg.sender, address(this), _amount);\n        IERC20Token(_totoken).transfer(_to, exchangevalue);\n    }\n\n\n\n    function unloadTokens(address _token) public {\n        require(msg.sender == owner);\n        uint _balance = IERC20Token(_token).balanceOf(address(this));\n        IERC20Token(_token).transfer(owner, _balance);\n\n    }\n\n}\n",
  "sourcePath": "C:/Users/Brindrajsinh Chauhan/Blockchain Projects/Celo_tokenswitch_trial_pages/src/contracts/MutateToken.sol",
  "compiler": {
    "name": "solc",
    "version": "0.5.0+commit.1d4f565a.Emscripten.clang"
  },
  "schemaVersion": "3.0.2",
  "updatedAt": "2021-10-27T20:27:11.893Z",
  "devdoc": {
    "methods": {}
  },
  "userdoc": {
    "methods": {}
  }
}