{
  "contractName": "MutateToken",
  "abi": [
    {
      "constant": true,
      "inputs": [],
      "name": "owner",
      "outputs": [
        {
          "name": "",
          "type": "address"
        }
      ],
      "payable": false,
      "stateMutability": "view",
      "type": "function",
      "signature": "0x8da5cb5b"
    },
    {
      "constant": true,
      "inputs": [
        {
          "name": "",
          "type": "address"
        }
      ],
      "name": "tokenName",
      "outputs": [
        {
          "name": "",
          "type": "string"
        }
      ],
      "payable": false,
      "stateMutability": "view",
      "type": "function",
      "signature": "0xe54f7522"
    },
    {
      "constant": true,
      "inputs": [
        {
          "name": "",
          "type": "address"
        }
      ],
      "name": "tokenBalance",
      "outputs": [
        {
          "name": "",
          "type": "uint256"
        }
      ],
      "payable": false,
      "stateMutability": "view",
      "type": "function",
      "signature": "0xeedc966a"
    },
    {
      "constant": true,
      "inputs": [
        {
          "name": "",
          "type": "address"
        }
      ],
      "name": "tokenIsLoaded",
      "outputs": [
        {
          "name": "",
          "type": "bool"
        }
      ],
      "payable": false,
      "stateMutability": "view",
      "type": "function",
      "signature": "0xf06b8307"
    },
    {
      "inputs": [],
      "payable": false,
      "stateMutability": "nonpayable",
      "type": "constructor"
    },
    {
      "constant": false,
      "inputs": [
        {
          "name": "_fromtoken",
          "type": "address"
        },
        {
          "name": "_totoken",
          "type": "address"
        },
        {
          "name": "_to",
          "type": "address"
        },
        {
          "name": "_amount",
          "type": "uint256"
        },
        {
          "name": "_atrate",
          "type": "uint256"
        },
        {
          "name": "_multiply",
          "type": "bool"
        }
      ],
      "name": "mutate",
      "outputs": [],
      "payable": false,
      "stateMutability": "nonpayable",
      "type": "function",
      "signature": "0x894da85d"
    },
    {
      "constant": false,
      "inputs": [
        {
          "name": "_name",
          "type": "string"
        },
        {
          "name": "_token",
          "type": "address"
        },
        {
          "name": "_amount",
          "type": "uint256"
        }
      ],
      "name": "loadTokens",
      "outputs": [],
      "payable": false,
      "stateMutability": "nonpayable",
      "type": "function",
      "signature": "0x97123089"
    },
    {
      "constant": false,
      "inputs": [
        {
          "name": "_token",
          "type": "address"
        }
      ],
      "name": "unloadTokens",
      "outputs": [],
      "payable": false,
      "stateMutability": "nonpayable",
      "type": "function",
      "signature": "0x7c6db7ef"
    }
  ],
  "bytecode": "0x608060405234801561001057600080fd5b50336000806101000a81548173ffffffffffffffffffffffffffffffffffffffff021916908373ffffffffffffffffffffffffffffffffffffffff16021790555061108c806100606000396000f3fe608060405260043610610083576000357c0100000000000000000000000000000000000000000000000000000000900463ffffffff1680637c6db7ef14610088578063894da85d146100d95780638da5cb5b1461018a57806397123089146101e1578063e54f7522146102d3578063eedc966a1461039d578063f06b830714610402575b600080fd5b34801561009457600080fd5b506100d7600480360360208110156100ab57600080fd5b81019080803573ffffffffffffffffffffffffffffffffffffffff16906020019092919050505061046b565b005b3480156100e557600080fd5b50610188600480360360c08110156100fc57600080fd5b81019080803573ffffffffffffffffffffffffffffffffffffffff169060200190929190803573ffffffffffffffffffffffffffffffffffffffff169060200190929190803573ffffffffffffffffffffffffffffffffffffffff16906020019092919080359060200190929190803590602001909291908035151590602001909291905050506106a5565b005b34801561019657600080fd5b5061019f610b6c565b604051808273ffffffffffffffffffffffffffffffffffffffff1673ffffffffffffffffffffffffffffffffffffffff16815260200191505060405180910390f35b3480156101ed57600080fd5b506102d16004803603606081101561020457600080fd5b810190808035906020019064010000000081111561022157600080fd5b82018360208201111561023357600080fd5b8035906020019184600183028401116401000000008311171561025557600080fd5b91908080601f016020809104026020016040519081016040528093929190818152602001838380828437600081840152601f19601f820116905080830192505050505050509192919290803573ffffffffffffffffffffffffffffffffffffffff16906020019092919080359060200190929190505050610b91565b005b3480156102df57600080fd5b50610322600480360360208110156102f657600080fd5b81019080803573ffffffffffffffffffffffffffffffffffffffff169060200190929190505050610ed3565b6040518080602001828103825283818151815260200191508051906020019080838360005b83811015610362578082015181840152602081019050610347565b50505050905090810190601f16801561038f5780820380516001836020036101000a031916815260200191505b509250505060405180910390f35b3480156103a957600080fd5b506103ec600480360360208110156103c057600080fd5b81019080803573ffffffffffffffffffffffffffffffffffffffff169060200190929190505050610f83565b6040518082815260200191505060405180910390f35b34801561040e57600080fd5b506104516004803603602081101561042557600080fd5b81019080803573ffffffffffffffffffffffffffffffffffffffff169060200190929190505050610f9b565b604051808215151515815260200191505060405180910390f35b6000809054906101000a900473ffffffffffffffffffffffffffffffffffffffff1673ffffffffffffffffffffffffffffffffffffffff163373ffffffffffffffffffffffffffffffffffffffff161415156104c657600080fd5b8073ffffffffffffffffffffffffffffffffffffffff1663a9059cbb6000809054906101000a900473ffffffffffffffffffffffffffffffffffffffff16600260008573ffffffffffffffffffffffffffffffffffffffff1673ffffffffffffffffffffffffffffffffffffffff168152602001908152602001600020546040518363ffffffff167c0100000000000000000000000000000000000000000000000000000000028152600401808373ffffffffffffffffffffffffffffffffffffffff1673ffffffffffffffffffffffffffffffffffffffff16815260200182815260200192505050602060405180830381600087803b1580156105c957600080fd5b505af11580156105dd573d6000803e3d6000fd5b505050506040513d60208110156105f357600080fd5b8101908080519060200190929190505050506000600260008373ffffffffffffffffffffffffffffffffffffffff1673ffffffffffffffffffffffffffffffffffffffff168152602001908152602001600020819055506000600360008373ffffffffffffffffffffffffffffffffffffffff1673ffffffffffffffffffffffffffffffffffffffff16815260200190815260200160002060006101000a81548160ff02191690831515021790555050565b60006001151582151514156106be5783830290506106cd565b82848115156106c957fe5b0490505b808673ffffffffffffffffffffffffffffffffffffffff166370a08231306040518263ffffffff167c0100000000000000000000000000000000000000000000000000000000028152600401808273ffffffffffffffffffffffffffffffffffffffff1673ffffffffffffffffffffffffffffffffffffffff16815260200191505060206040518083038186803b15801561076757600080fd5b505afa15801561077b573d6000803e3d6000fd5b505050506040513d602081101561079157600080fd5b8101908080519060200190929190505050101515156107af57600080fd5b60008773ffffffffffffffffffffffffffffffffffffffff166370a08231336040518263ffffffff167c0100000000000000000000000000000000000000000000000000000000028152600401808273ffffffffffffffffffffffffffffffffffffffff1673ffffffffffffffffffffffffffffffffffffffff16815260200191505060206040518083038186803b15801561084a57600080fd5b505afa15801561085e573d6000803e3d6000fd5b505050506040513d602081101561087457600080fd5b81019080805190602001909291905050501015151561089257600080fd5b8673ffffffffffffffffffffffffffffffffffffffff1663095ea7b330866040518363ffffffff167c0100000000000000000000000000000000000000000000000000000000028152600401808373ffffffffffffffffffffffffffffffffffffffff1673ffffffffffffffffffffffffffffffffffffffff16815260200182815260200192505050602060405180830381600087803b15801561093557600080fd5b505af1158015610949573d6000803e3d6000fd5b505050506040513d602081101561095f57600080fd5b8101908080519060200190929190505050508673ffffffffffffffffffffffffffffffffffffffff166323b872dd3330876040518463ffffffff167c0100000000000000000000000000000000000000000000000000000000028152600401808473ffffffffffffffffffffffffffffffffffffffff1673ffffffffffffffffffffffffffffffffffffffff1681526020018373ffffffffffffffffffffffffffffffffffffffff1673ffffffffffffffffffffffffffffffffffffffff1681526020018281526020019350505050602060405180830381600087803b158015610a4857600080fd5b505af1158015610a5c573d6000803e3d6000fd5b505050506040513d6020811015610a7257600080fd5b8101908080519060200190929190505050508573ffffffffffffffffffffffffffffffffffffffff1663a9059cbb86836040518363ffffffff167c0100000000000000000000000000000000000000000000000000000000028152600401808373ffffffffffffffffffffffffffffffffffffffff1673ffffffffffffffffffffffffffffffffffffffff16815260200182815260200192505050602060405180830381600087803b158015610b2757600080fd5b505af1158015610b3b573d6000803e3d6000fd5b505050506040513d6020811015610b5157600080fd5b81019080805190602001909291905050505050505050505050565b6000809054906101000a900473ffffffffffffffffffffffffffffffffffffffff1681565b6000809054906101000a900473ffffffffffffffffffffffffffffffffffffffff1673ffffffffffffffffffffffffffffffffffffffff163373ffffffffffffffffffffffffffffffffffffffff16141515610bec57600080fd5b8173ffffffffffffffffffffffffffffffffffffffff1663095ea7b330836040518363ffffffff167c0100000000000000000000000000000000000000000000000000000000028152600401808373ffffffffffffffffffffffffffffffffffffffff1673ffffffffffffffffffffffffffffffffffffffff16815260200182815260200192505050602060405180830381600087803b158015610c8f57600080fd5b505af1158015610ca3573d6000803e3d6000fd5b505050506040513d6020811015610cb957600080fd5b8101908080519060200190929190505050508173ffffffffffffffffffffffffffffffffffffffff166323b872dd3330846040518463ffffffff167c0100000000000000000000000000000000000000000000000000000000028152600401808473ffffffffffffffffffffffffffffffffffffffff1673ffffffffffffffffffffffffffffffffffffffff1681526020018373ffffffffffffffffffffffffffffffffffffffff1673ffffffffffffffffffffffffffffffffffffffff1681526020018281526020019350505050602060405180830381600087803b158015610da257600080fd5b505af1158015610db6573d6000803e3d6000fd5b505050506040513d6020811015610dcc57600080fd5b81019080805190602001909291905050505082600160008473ffffffffffffffffffffffffffffffffffffffff1673ffffffffffffffffffffffffffffffffffffffff1681526020019081526020016000209080519060200190610e31929190610fbb565b5080600260008473ffffffffffffffffffffffffffffffffffffffff1673ffffffffffffffffffffffffffffffffffffffff168152602001908152602001600020819055506001600360008473ffffffffffffffffffffffffffffffffffffffff1673ffffffffffffffffffffffffffffffffffffffff16815260200190815260200160002060006101000a81548160ff021916908315150217905550505050565b60016020528060005260406000206000915090508054600181600116156101000203166002900480601f016020809104026020016040519081016040528092919081815260200182805460018160011615610100020316600290048015610f7b5780601f10610f5057610100808354040283529160200191610f7b565b820191906000526020600020905b815481529060010190602001808311610f5e57829003601f168201915b505050505081565b60026020528060005260406000206000915090505481565b60036020528060005260406000206000915054906101000a900460ff1681565b828054600181600116156101000203166002900490600052602060002090601f016020900481019282601f10610ffc57805160ff191683800117855561102a565b8280016001018555821561102a579182015b8281111561102957825182559160200191906001019061100e565b5b509050611037919061103b565b5090565b61105d91905b80821115611059576000816000905550600101611041565b5090565b9056fea165627a7a72305820c8ab4c43228a5c92dd8c720a1363b33e5bd43b93b79278fa33cae13efd75cfd60029",
  "source": "pragma solidity ^0.5.0;\n\ninterface IERC20Token {\n  function transfer(address, uint256) external returns (bool);\n  function approve(address, uint256) external returns (bool);\n  function transferFrom(address, address, uint256) external returns (bool);\n  function totalSupply() external view returns (uint256);\n  function balanceOf(address) external view returns (uint256);\n  function allowance(address, address) external view returns (uint256);\n\n  event Transfer(address indexed from, address indexed to, uint256 value);\n  event Approval(address indexed owner, address indexed spender, uint256 value);\n}\n\ncontract MutateToken {\n    address public owner;\n\n    constructor() public{\n        owner = msg.sender;\n    }\n\n    mapping(address => string) public tokenName;\n    mapping(address => uint) public tokenBalance;\n    mapping(address => bool) public tokenIsLoaded;\n\n    // Convert USDT token(_fromtoken) -> INRT token(_totoken) and send it to the address\n    function mutate(address _fromtoken, address _totoken, address _to, uint _amount, uint _atrate, bool _multiply) public {\n        uint exchangevalue;\n        if(_multiply == true){\n            exchangevalue = _atrate * _amount;\n        }else{\n            exchangevalue = _amount / _atrate;\n        }\n        require(IERC20Token(_totoken).balanceOf(address(this)) >= exchangevalue);\n        require(IERC20Token(_fromtoken).balanceOf(msg.sender) >= 0);\n        IERC20Token(_fromtoken).approve(address(this), _amount);\n        IERC20Token(_fromtoken).transferFrom(msg.sender, address(this), _amount);\n        IERC20Token(_totoken).transfer(_to, exchangevalue);\n    }\n\n    function loadTokens(string memory _name, address _token, uint _amount) public {\n        require(msg.sender == owner);\n        IERC20Token(_token).approve(address(this), _amount);\n        IERC20Token(_token).transferFrom(msg.sender, address(this), _amount);\n        tokenName[_token] = _name;\n        tokenBalance[_token] = _amount;\n        tokenIsLoaded[_token] = true;\n    }\n\n    function unloadTokens(address _token) public {\n        require(msg.sender == owner);\n        IERC20Token(_token).transfer(owner, tokenBalance[_token]);\n        tokenBalance[_token] = 0;\n        tokenIsLoaded[_token] = false;\n    }\n\n}\n",
  "sourcePath": "C:/Users/Brindrajsinh Chauhan/Blockchain Projects/Celo_tokenswitch_trial_pages/src/contracts/MutateToken.sol",
  "compiler": {
    "name": "solc",
    "version": "0.5.0+commit.1d4f565a.Emscripten.clang"
  },
  "schemaVersion": "3.0.2",
  "updatedAt": "2021-10-20T22:12:16.417Z",
  "devdoc": {
    "methods": {}
  },
  "userdoc": {
    "methods": {}
  }
}