{
  "contractName": "StakingContract",
  "abi": [
    {
      "constant": true,
      "inputs": [
        {
          "name": "",
          "type": "address"
        }
      ],
      "name": "lastRelease",
      "outputs": [
        {
          "name": "",
          "type": "uint256"
        }
      ],
      "payable": false,
      "stateMutability": "view",
      "type": "function",
      "signature": "0x15c757b2"
    },
    {
      "constant": true,
      "inputs": [
        {
          "name": "",
          "type": "uint256"
        }
      ],
      "name": "stakingTokens",
      "outputs": [
        {
          "name": "",
          "type": "address"
        }
      ],
      "payable": false,
      "stateMutability": "view",
      "type": "function",
      "signature": "0x344e5e34"
    },
    {
      "constant": true,
      "inputs": [],
      "name": "totalRewardsupply",
      "outputs": [
        {
          "name": "",
          "type": "uint256"
        }
      ],
      "payable": false,
      "stateMutability": "view",
      "type": "function",
      "signature": "0x4e0eda68"
    },
    {
      "constant": true,
      "inputs": [
        {
          "name": "",
          "type": "address"
        }
      ],
      "name": "unlockedBalance",
      "outputs": [
        {
          "name": "",
          "type": "uint256"
        }
      ],
      "payable": false,
      "stateMutability": "view",
      "type": "function",
      "signature": "0x5e0fac2e"
    },
    {
      "constant": true,
      "inputs": [],
      "name": "rewardRate",
      "outputs": [
        {
          "name": "",
          "type": "uint256"
        }
      ],
      "payable": false,
      "stateMutability": "view",
      "type": "function",
      "signature": "0x7b0a47ee"
    },
    {
      "constant": true,
      "inputs": [
        {
          "name": "",
          "type": "uint256"
        }
      ],
      "name": "Stakers",
      "outputs": [
        {
          "name": "",
          "type": "address"
        }
      ],
      "payable": false,
      "stateMutability": "view",
      "type": "function",
      "signature": "0x8c2f6887"
    },
    {
      "constant": true,
      "inputs": [
        {
          "name": "",
          "type": "address"
        }
      ],
      "name": "lockedBalance",
      "outputs": [
        {
          "name": "",
          "type": "uint256"
        }
      ],
      "payable": false,
      "stateMutability": "view",
      "type": "function",
      "signature": "0x9ae697bf"
    },
    {
      "constant": true,
      "inputs": [
        {
          "name": "",
          "type": "address"
        }
      ],
      "name": "redeemedBalance",
      "outputs": [
        {
          "name": "",
          "type": "uint256"
        }
      ],
      "payable": false,
      "stateMutability": "view",
      "type": "function",
      "signature": "0xaed2f48c"
    },
    {
      "constant": true,
      "inputs": [],
      "name": "lastUpdatedTime",
      "outputs": [
        {
          "name": "",
          "type": "uint256"
        }
      ],
      "payable": false,
      "stateMutability": "view",
      "type": "function",
      "signature": "0xbf856895"
    },
    {
      "constant": true,
      "inputs": [
        {
          "name": "",
          "type": "address"
        }
      ],
      "name": "hasStaked",
      "outputs": [
        {
          "name": "",
          "type": "bool"
        }
      ],
      "payable": false,
      "stateMutability": "view",
      "type": "function",
      "signature": "0xc93c8f34"
    },
    {
      "constant": true,
      "inputs": [
        {
          "name": "",
          "type": "address"
        }
      ],
      "name": "lastContribution",
      "outputs": [
        {
          "name": "",
          "type": "uint256"
        }
      ],
      "payable": false,
      "stateMutability": "view",
      "type": "function",
      "signature": "0xeafc8d20"
    },
    {
      "constant": true,
      "inputs": [
        {
          "name": "",
          "type": "address"
        },
        {
          "name": "",
          "type": "address"
        }
      ],
      "name": "balanceOf",
      "outputs": [
        {
          "name": "",
          "type": "uint256"
        }
      ],
      "payable": false,
      "stateMutability": "view",
      "type": "function",
      "signature": "0xf7888aec"
    },
    {
      "constant": true,
      "inputs": [],
      "name": "rewardToken",
      "outputs": [
        {
          "name": "",
          "type": "address"
        }
      ],
      "payable": false,
      "stateMutability": "view",
      "type": "function",
      "signature": "0xf7c618c1"
    },
    {
      "constant": true,
      "inputs": [
        {
          "name": "",
          "type": "address"
        }
      ],
      "name": "inStaking",
      "outputs": [
        {
          "name": "",
          "type": "bool"
        }
      ],
      "payable": false,
      "stateMutability": "view",
      "type": "function",
      "signature": "0xf97392d9"
    },
    {
      "inputs": [
        {
          "name": "_rewardToken",
          "type": "address"
        }
      ],
      "payable": false,
      "stateMutability": "nonpayable",
      "type": "constructor",
      "signature": "constructor"
    },
    {
      "constant": false,
      "inputs": [
        {
          "name": "_stakingToken",
          "type": "address"
        },
        {
          "name": "_amount",
          "type": "uint256"
        }
      ],
      "name": "StakeTokens",
      "outputs": [],
      "payable": false,
      "stateMutability": "nonpayable",
      "type": "function",
      "signature": "0xeb564dbd"
    },
    {
      "constant": false,
      "inputs": [
        {
          "name": "_stakingToken",
          "type": "address"
        }
      ],
      "name": "unStakeTokens",
      "outputs": [],
      "payable": false,
      "stateMutability": "nonpayable",
      "type": "function",
      "signature": "0xc5421230"
    },
    {
      "constant": false,
      "inputs": [],
      "name": "releaseTokens",
      "outputs": [],
      "payable": false,
      "stateMutability": "nonpayable",
      "type": "function",
      "signature": "0xa96f8668"
    },
    {
      "constant": false,
      "inputs": [
        {
          "name": "_amount",
          "type": "uint256"
        }
      ],
      "name": "redeemTokens",
      "outputs": [],
      "payable": true,
      "stateMutability": "payable",
      "type": "function",
      "signature": "0xa6e158f8"
    },
    {
      "constant": false,
      "inputs": [],
      "name": "Contribute",
      "outputs": [],
      "payable": false,
      "stateMutability": "nonpayable",
      "type": "function",
      "signature": "0xb309a91a"
    },
    {
      "constant": false,
      "inputs": [
        {
          "name": "_token",
          "type": "address"
        }
      ],
      "name": "unLoadTokens",
      "outputs": [],
      "payable": false,
      "stateMutability": "nonpayable",
      "type": "function",
      "signature": "0x89c872c5"
    }
  ],
  "bytecode": "0x60806040526000600755670de0b6b3a7640000600b5534801561002157600080fd5b50604051602080611c978339810180604052602081101561004157600080fd5b8101908080519060200190929190505050806000806101000a81548173ffffffffffffffffffffffffffffffffffffffff021916908373ffffffffffffffffffffffffffffffffffffffff16021790555033600160006101000a81548173ffffffffffffffffffffffffffffffffffffffff021916908373ffffffffffffffffffffffffffffffffffffffff1602179055506000809054906101000a900473ffffffffffffffffffffffffffffffffffffffff1673ffffffffffffffffffffffffffffffffffffffff166370a08231306040518263ffffffff167c0100000000000000000000000000000000000000000000000000000000028152600401808273ffffffffffffffffffffffffffffffffffffffff1673ffffffffffffffffffffffffffffffffffffffff16815260200191505060206040518083038186803b15801561018d57600080fd5b505afa1580156101a1573d6000803e3d6000fd5b505050506040513d60208110156101b757600080fd5b81019080805190602001909291905050506002819055504260078190555050611ab2806101e56000396000f3fe608060405260043610610112576000357c0100000000000000000000000000000000000000000000000000000000900463ffffffff16806315c757b214610117578063344e5e341461017c5780634e0eda68146101f75780635e0fac2e146102225780637b0a47ee1461028757806389c872c5146102b25780638c2f6887146103035780639ae697bf1461037e578063a6e158f8146103e3578063a96f866814610411578063aed2f48c14610428578063b309a91a1461048d578063bf856895146104a4578063c5421230146104cf578063c93c8f3414610520578063eafc8d2014610589578063eb564dbd146105ee578063f7888aec14610649578063f7c618c1146106ce578063f97392d914610725575b600080fd5b34801561012357600080fd5b506101666004803603602081101561013a57600080fd5b81019080803573ffffffffffffffffffffffffffffffffffffffff16906020019092919050505061078e565b6040518082815260200191505060405180910390f35b34801561018857600080fd5b506101b56004803603602081101561019f57600080fd5b81019080803590602001909291905050506107a6565b604051808273ffffffffffffffffffffffffffffffffffffffff1673ffffffffffffffffffffffffffffffffffffffff16815260200191505060405180910390f35b34801561020357600080fd5b5061020c6107e4565b6040518082815260200191505060405180910390f35b34801561022e57600080fd5b506102716004803603602081101561024557600080fd5b81019080803573ffffffffffffffffffffffffffffffffffffffff1690602001909291905050506107ea565b6040518082815260200191505060405180910390f35b34801561029357600080fd5b5061029c610802565b6040518082815260200191505060405180910390f35b3480156102be57600080fd5b50610301600480360360208110156102d557600080fd5b81019080803573ffffffffffffffffffffffffffffffffffffffff169060200190929190505050610808565b005b34801561030f57600080fd5b5061033c6004803603602081101561032657600080fd5b8101908080359060200190929190505050610a41565b604051808273ffffffffffffffffffffffffffffffffffffffff1673ffffffffffffffffffffffffffffffffffffffff16815260200191505060405180910390f35b34801561038a57600080fd5b506103cd600480360360208110156103a157600080fd5b81019080803573ffffffffffffffffffffffffffffffffffffffff169060200190929190505050610a7f565b6040518082815260200191505060405180910390f35b61040f600480360360208110156103f957600080fd5b8101908080359060200190929190505050610a97565b005b34801561041d57600080fd5b50610426610c82565b005b34801561043457600080fd5b506104776004803603602081101561044b57600080fd5b81019080803573ffffffffffffffffffffffffffffffffffffffff169060200190929190505050610e0b565b6040518082815260200191505060405180910390f35b34801561049957600080fd5b506104a2610e23565b005b3480156104b057600080fd5b506104b9611188565b6040518082815260200191505060405180910390f35b3480156104db57600080fd5b5061051e600480360360208110156104f257600080fd5b81019080803573ffffffffffffffffffffffffffffffffffffffff16906020019092919050505061118e565b005b34801561052c57600080fd5b5061056f6004803603602081101561054357600080fd5b81019080803573ffffffffffffffffffffffffffffffffffffffff1690602001909291905050506113ff565b604051808215151515815260200191505060405180910390f35b34801561059557600080fd5b506105d8600480360360208110156105ac57600080fd5b81019080803573ffffffffffffffffffffffffffffffffffffffff16906020019092919050505061141f565b6040518082815260200191505060405180910390f35b3480156105fa57600080fd5b506106476004803603604081101561061157600080fd5b81019080803573ffffffffffffffffffffffffffffffffffffffff16906020019092919080359060200190929190505050611437565b005b34801561065557600080fd5b506106b86004803603604081101561066c57600080fd5b81019080803573ffffffffffffffffffffffffffffffffffffffff169060200190929190803573ffffffffffffffffffffffffffffffffffffffff169060200190929190505050611a1c565b6040518082815260200191505060405180910390f35b3480156106da57600080fd5b506106e3611a41565b604051808273ffffffffffffffffffffffffffffffffffffffff1673ffffffffffffffffffffffffffffffffffffffff16815260200191505060405180910390f35b34801561073157600080fd5b506107746004803603602081101561074857600080fd5b81019080803573ffffffffffffffffffffffffffffffffffffffff169060200190929190505050611a66565b604051808215151515815260200191505060405180910390f35b60096020528060005260406000206000915090505481565b6005818154811015156107b557fe5b906000526020600020016000915054906101000a900473ffffffffffffffffffffffffffffffffffffffff1681565b60025481565b600d6020528060005260406000206000915090505481565b600b5481565b600160009054906101000a900473ffffffffffffffffffffffffffffffffffffffff1673ffffffffffffffffffffffffffffffffffffffff163373ffffffffffffffffffffffffffffffffffffffff1614151561086457600080fd5b60008173ffffffffffffffffffffffffffffffffffffffff166370a08231306040518263ffffffff167c0100000000000000000000000000000000000000000000000000000000028152600401808273ffffffffffffffffffffffffffffffffffffffff1673ffffffffffffffffffffffffffffffffffffffff16815260200191505060206040518083038186803b1580156108ff57600080fd5b505afa158015610913573d6000803e3d6000fd5b505050506040513d602081101561092957600080fd5b810190808051906020019092919050505090508173ffffffffffffffffffffffffffffffffffffffff1663a9059cbb600160009054906101000a900473ffffffffffffffffffffffffffffffffffffffff16836040518363ffffffff167c0100000000000000000000000000000000000000000000000000000000028152600401808373ffffffffffffffffffffffffffffffffffffffff1673ffffffffffffffffffffffffffffffffffffffff16815260200182815260200192505050602060405180830381600087803b158015610a0157600080fd5b505af1158015610a15573d6000803e3d6000fd5b505050506040513d6020811015610a2b57600080fd5b8101908080519060200190929190505050505050565b600481815481101515610a5057fe5b906000526020600020016000915054906101000a900473ffffffffffffffffffffffffffffffffffffffff1681565b600c6020528060005260406000206000915090505481565b80600d60003373ffffffffffffffffffffffffffffffffffffffff1673ffffffffffffffffffffffffffffffffffffffff1681526020019081526020016000205410151515610ae557600080fd5b80600d60003373ffffffffffffffffffffffffffffffffffffffff1673ffffffffffffffffffffffffffffffffffffffff1681526020019081526020016000206000828254039250508190555080600e60003373ffffffffffffffffffffffffffffffffffffffff1673ffffffffffffffffffffffffffffffffffffffff168152602001908152602001600020600082825401925050819055506000809054906101000a900473ffffffffffffffffffffffffffffffffffffffff1673ffffffffffffffffffffffffffffffffffffffff1663a9059cbb33836040518363ffffffff167c0100000000000000000000000000000000000000000000000000000000028152600401808373ffffffffffffffffffffffffffffffffffffffff1673ffffffffffffffffffffffffffffffffffffffff16815260200182815260200192505050602060405180830381600087803b158015610c4357600080fd5b505af1158015610c57573d6000803e3d6000fd5b505050506040513d6020811015610c6d57600080fd5b81019080805190602001909291905050505050565b6000603c90506203f480600960003373ffffffffffffffffffffffffffffffffffffffff1673ffffffffffffffffffffffffffffffffffffffff168152602001908152602001600020544203111515610cda57600080fd5b600081600c60003373ffffffffffffffffffffffffffffffffffffffff1673ffffffffffffffffffffffffffffffffffffffff16815260200190815260200160002054811515610d2657fe5b04905080600c60003373ffffffffffffffffffffffffffffffffffffffff1673ffffffffffffffffffffffffffffffffffffffff1681526020019081526020016000206000828254039250508190555080600d60003373ffffffffffffffffffffffffffffffffffffffff1673ffffffffffffffffffffffffffffffffffffffff1681526020019081526020016000206000828254019250508190555042600960003373ffffffffffffffffffffffffffffffffffffffff1673ffffffffffffffffffffffffffffffffffffffff168152602001908152602001600020819055505050565b600e6020528060005260406000206000915090505481565b600042905060008090505b600580549050811015611139576000600582815481101515610e4c57fe5b9060005260206000200160009054906101000a900473ffffffffffffffffffffffffffffffffffffffff16905060008173ffffffffffffffffffffffffffffffffffffffff166370a08231306040518263ffffffff167c0100000000000000000000000000000000000000000000000000000000028152600401808273ffffffffffffffffffffffffffffffffffffffff1673ffffffffffffffffffffffffffffffffffffffff16815260200191505060206040518083038186803b158015610f1457600080fd5b505afa158015610f28573d6000803e3d6000fd5b505050506040513d6020811015610f3e57600080fd5b81019080805190602001909291905050509050600081111561112a5760006007548503600b5402905060008090505b600480549050811015611127576000600482815481101515610f8b57fe5b9060005260206000200160009054906101000a900473ffffffffffffffffffffffffffffffffffffffff16905062015180600860008373ffffffffffffffffffffffffffffffffffffffff1673ffffffffffffffffffffffffffffffffffffffff16815260200190815260200160002054880310156111195760008484600360008973ffffffffffffffffffffffffffffffffffffffff1673ffffffffffffffffffffffffffffffffffffffff16815260200190815260200160002060008573ffffffffffffffffffffffffffffffffffffffff1673ffffffffffffffffffffffffffffffffffffffff168152602001908152602001600020540281151561108f57fe5b04905080600c60008473ffffffffffffffffffffffffffffffffffffffff1673ffffffffffffffffffffffffffffffffffffffff1681526020019081526020016000205401600c60008473ffffffffffffffffffffffffffffffffffffffff1673ffffffffffffffffffffffffffffffffffffffff16815260200190815260200160002081905550505b508080600101915050610f6d565b50505b50508080600101915050610e2e565b5080600860003373ffffffffffffffffffffffffffffffffffffffff1673ffffffffffffffffffffffffffffffffffffffff168152602001908152602001600020819055508060078190555050565b60075481565b6000600360008373ffffffffffffffffffffffffffffffffffffffff1673ffffffffffffffffffffffffffffffffffffffff16815260200190815260200160002060003373ffffffffffffffffffffffffffffffffffffffff1673ffffffffffffffffffffffffffffffffffffffff1681526020019081526020016000205411151561121957600080fd5b6000600360008373ffffffffffffffffffffffffffffffffffffffff1673ffffffffffffffffffffffffffffffffffffffff16815260200190815260200160002060003373ffffffffffffffffffffffffffffffffffffffff1673ffffffffffffffffffffffffffffffffffffffff1681526020019081526020016000205490506000600360008473ffffffffffffffffffffffffffffffffffffffff1673ffffffffffffffffffffffffffffffffffffffff16815260200190815260200160002060003373ffffffffffffffffffffffffffffffffffffffff1673ffffffffffffffffffffffffffffffffffffffff168152602001908152602001600020819055508173ffffffffffffffffffffffffffffffffffffffff1663a9059cbb33836040518363ffffffff167c0100000000000000000000000000000000000000000000000000000000028152600401808373ffffffffffffffffffffffffffffffffffffffff1673ffffffffffffffffffffffffffffffffffffffff16815260200182815260200192505050602060405180830381600087803b1580156113bf57600080fd5b505af11580156113d3573d6000803e3d6000fd5b505050506040513d60208110156113e957600080fd5b8101908080519060200190929190505050505050565b600a6020528060005260406000206000915054906101000a900460ff1681565b60086020528060005260406000206000915090505481565b60008111151561144657600080fd5b808273ffffffffffffffffffffffffffffffffffffffff166370a08231336040518263ffffffff167c0100000000000000000000000000000000000000000000000000000000028152600401808273ffffffffffffffffffffffffffffffffffffffff1673ffffffffffffffffffffffffffffffffffffffff16815260200191505060206040518083038186803b1580156114e057600080fd5b505afa1580156114f4573d6000803e3d6000fd5b505050506040513d602081101561150a57600080fd5b81019080805190602001909291905050501015151561152857600080fd5b8173ffffffffffffffffffffffffffffffffffffffff1663095ea7b330836040518363ffffffff167c0100000000000000000000000000000000000000000000000000000000028152600401808373ffffffffffffffffffffffffffffffffffffffff1673ffffffffffffffffffffffffffffffffffffffff16815260200182815260200192505050602060405180830381600087803b1580156115cb57600080fd5b505af11580156115df573d6000803e3d6000fd5b505050506040513d60208110156115f557600080fd5b8101908080519060200190929190505050508173ffffffffffffffffffffffffffffffffffffffff166323b872dd3330846040518463ffffffff167c0100000000000000000000000000000000000000000000000000000000028152600401808473ffffffffffffffffffffffffffffffffffffffff1673ffffffffffffffffffffffffffffffffffffffff1681526020018373ffffffffffffffffffffffffffffffffffffffff1673ffffffffffffffffffffffffffffffffffffffff1681526020018281526020019350505050602060405180830381600087803b1580156116de57600080fd5b505af11580156116f2573d6000803e3d6000fd5b505050506040513d602081101561170857600080fd5b81019080805190602001909291905050505080600360008473ffffffffffffffffffffffffffffffffffffffff1673ffffffffffffffffffffffffffffffffffffffff16815260200190815260200160002060003373ffffffffffffffffffffffffffffffffffffffff1673ffffffffffffffffffffffffffffffffffffffff1681526020019081526020016000206000828254019250508190555060001515600a60003373ffffffffffffffffffffffffffffffffffffffff1673ffffffffffffffffffffffffffffffffffffffff16815260200190815260200160002060009054906101000a900460ff16151514156118bc5760043390806001815401808255809150509060018203906000526020600020016000909192909190916101000a81548173ffffffffffffffffffffffffffffffffffffffff021916908373ffffffffffffffffffffffffffffffffffffffff160217905550506001600a60003373ffffffffffffffffffffffffffffffffffffffff1673ffffffffffffffffffffffffffffffffffffffff16815260200190815260200160002060006101000a81548160ff0219169083151502179055505b60001515600660008473ffffffffffffffffffffffffffffffffffffffff1673ffffffffffffffffffffffffffffffffffffffff16815260200190815260200160002060009054906101000a900460ff16151514156119d4576001600660008473ffffffffffffffffffffffffffffffffffffffff1673ffffffffffffffffffffffffffffffffffffffff16815260200190815260200160002060006101000a81548160ff02191690831515021790555060058290806001815401808255809150509060018203906000526020600020016000909192909190916101000a81548173ffffffffffffffffffffffffffffffffffffffff021916908373ffffffffffffffffffffffffffffffffffffffff160217905550505b42600860003373ffffffffffffffffffffffffffffffffffffffff1673ffffffffffffffffffffffffffffffffffffffff168152602001908152602001600020819055505050565b6003602052816000526040600020602052806000526040600020600091509150505481565b6000809054906101000a900473ffffffffffffffffffffffffffffffffffffffff1681565b60066020528060005260406000206000915054906101000a900460ff168156fea165627a7a72305820957a7d2b59016986da106be0848ef5363429253905afc0b254bf2e662f061a9f0029",
  "source": "pragma solidity ^0.5.0;\r\n\r\ninterface IERC20Token {\r\n  function transfer(address, uint256) external returns (bool);\r\n  function approve(address, uint256) external returns (bool);\r\n  function transferFrom(address, address, uint256) external returns (bool);\r\n  function totalSupply() external view returns (uint256);\r\n  function balanceOf(address) external view returns (uint256);\r\n  function allowance(address, address) external view returns (uint256);\r\n\r\n  event Transfer(address indexed from, address indexed to, uint256 value);\r\n  event Approval(address indexed owner, address indexed spender, uint256 value);\r\n}\r\n\r\ncontract StakingContract {\r\n\r\n    //======== Constants ========//\r\n    IERC20Token public rewardToken;\r\n    address private owner;\r\n    uint public totalRewardsupply;\r\n\r\n    //======== Staking Section ========//\r\n    mapping(address => mapping(address => uint)) public balanceOf; // balanceOf[Token][client]\r\n    address[] public Stakers;\r\n    address[] public stakingTokens;\r\n    mapping(address => bool) public inStaking;\r\n    uint public lastUpdatedTime = 0;\r\n    mapping(address => uint) public lastContribution;\r\n    mapping(address => uint) public lastRelease;\r\n    mapping(address => bool) public hasStaked;\r\n    uint public rewardRate = 1000000000000000000; // 1 tokens per second\r\n\r\n    //========================= Vesting Section ==============================//\r\n    mapping(address => uint) public lockedBalance;\r\n    mapping(address => uint) public unlockedBalance;\r\n    mapping(address => uint) public redeemedBalance;\r\n\r\n    constructor(address _rewardToken) public{\r\n        rewardToken = IERC20Token(_rewardToken);\r\n        owner = msg.sender;\r\n        totalRewardsupply = rewardToken.balanceOf(address(this));\r\n        lastUpdatedTime = block.timestamp;\r\n    }\r\n\r\n    //======== Staking Interaction Seciton ========//\r\n    function StakeTokens(address _stakingToken, uint _amount) public{\r\n        require(_amount > 0);\r\n        require(IERC20Token(_stakingToken).balanceOf(msg.sender) >= _amount);\r\n        IERC20Token(_stakingToken).approve(address(this), _amount);\r\n        IERC20Token(_stakingToken).transferFrom(msg.sender, address(this), _amount);\r\n        balanceOf[_stakingToken][msg.sender] += _amount;\r\n        if(hasStaked[msg.sender] == false){\r\n            Stakers.push(msg.sender);\r\n            hasStaked[msg.sender] = true;\r\n        }\r\n        if(inStaking[_stakingToken] == false){\r\n            inStaking[_stakingToken] = true;\r\n            stakingTokens.push(_stakingToken);\r\n        }\r\n        lastContribution[msg.sender] = block.timestamp;\r\n\r\n    }\r\n\r\n    function unStakeTokens(address _stakingToken) public{\r\n        require(balanceOf[_stakingToken][msg.sender] > 0);\r\n        uint amount = balanceOf[_stakingToken][msg.sender];\r\n        balanceOf[_stakingToken][msg.sender] = 0;\r\n        IERC20Token(_stakingToken).transfer(msg.sender, amount);\r\n    }\r\n\r\n    function releaseTokens() public{\r\n        uint releaseLimit = 60;\r\n        require(block.timestamp - lastRelease[msg.sender] > 259200); //three days\r\n        uint unlockedamount = lockedBalance[msg.sender]/releaseLimit;\r\n        lockedBalance[msg.sender] -= unlockedamount;\r\n        unlockedBalance[msg.sender] += unlockedamount;\r\n        lastRelease[msg.sender] = block.timestamp;\r\n    }\r\n\r\n    function redeemTokens(uint _amount) public payable{\r\n        require(unlockedBalance[msg.sender] >= _amount);\r\n        unlockedBalance[msg.sender] -=  _amount;\r\n        redeemedBalance[msg.sender] += _amount;\r\n        rewardToken.transfer(msg.sender, _amount);\r\n    }\r\n\r\n    function Contribute() public {\r\n        uint currentTime = block.timestamp;\r\n        for(uint i=0; i < stakingTokens.length; i++){\r\n            address token = stakingTokens[i];\r\n            uint currentTotalbalance = IERC20Token(token).balanceOf(address(this));\r\n            if ( currentTotalbalance > 0){\r\n                uint rewardAmount = rewardRate*(currentTime - lastUpdatedTime);\r\n                for(uint j=0; j< Stakers.length; j++){\r\n                    address user = Stakers[j];\r\n                    if(currentTime - lastContribution[user]< 86400) //time is seconds\r\n                    {\r\n                    uint reward = (balanceOf[token][user]*rewardAmount)/currentTotalbalance;\r\n                    lockedBalance[user] = lockedBalance[user] + reward;\r\n                    }\r\n                }\r\n            }\r\n        }\r\n        lastContribution[msg.sender] = currentTime;\r\n        lastUpdatedTime = currentTime;\r\n    }\r\n\r\n    //======== Owner Seciton ========//\r\n    function unLoadTokens(address _token) public{\r\n        require(msg.sender == owner);\r\n        uint amount = IERC20Token(_token).balanceOf(address(this));\r\n        IERC20Token(_token).transfer(owner, amount);\r\n    }\r\n\r\n}\r\n",
  "sourcePath": "C:/Users/Brindrajsinh Chauhan/Blockchain Projects/Celo_tokenswitch_trial_pages/src/contracts/StakingContract.sol",
  "compiler": {
    "name": "solc",
    "version": "0.5.0+commit.1d4f565a.Emscripten.clang"
  },
  "schemaVersion": "3.0.2",
  "updatedAt": "2021-10-30T23:04:28.532Z",
  "devdoc": {
    "methods": {}
  },
  "userdoc": {
    "methods": {}
  }
}